:020000040000FA
:100000008867002065030000B9080000210800008F
:10001000790300007B0300007D0300000000000066
:10002000939D939B04999697F10000003102000084
:10003000A507000000000000DD02000051030000E1
:100040007F0300007F0300007F0300007F030000A8
:100050007F0300007F0300007F0300007F03000098
:10006000D92300007F0300007F0300007F0300000E
:100070007F0300007F0300007F0300007F03000078
:100080007F0300007F0300007F0300007F03000068
:100090007F0300007F0300007F0300007F03000058
:1000A0007F0300007F0300007F0300007F03000048
:1000B0007F0300007F0300007F0300007F03000038
:1000C0007F0300007F030000290B00007F03000076
:1000D0007F0300007F0300007F0300007F03000018
:1000E0007F0300007F0300007F0300007F03000008
:1000F0007F0300007F0300007F0300007F030000F8
:100100007F03000000F002F800F04CF80AA090E82D
:10011000000C82448344AAF10107DA4501D100F0C2
:1001200041F8AFF2090EBAE80F0013F0010F18BF43
:10013000FB1A43F0010318471871000038710000E2
:100140000A4410F8014B14F00F0508BF10F8015BCA
:10015000240908BF10F8014B6D1E05D010F8013BB3
:100160006D1E01F8013BF9D1641E03D0641E01F835
:10017000015BFBD19142E4D37047000000230024CF
:1001800000250026103A28BF78C1FBD8520728BFA7
:1001900030C148BF0B6070471FB506F048F91FBD5E
:1001A00010B510BDDFF80CD0FFF7F6FF03F04EFAE4
:1001B00000F0E4FA8867002003B4FFF7F1FF03BC06
:1001C00000F0E6FA8546084780F309887047EFF3A8
:1001D00009807047684680F3098804480078C007A2
:1001E00014BF0220032080F3148870471C650000B0
:1001F000DFF818C0EFF305831B0618BF6047EFF365
:100200001483DB0708BF604700DF70472543000009
:10021000DFF818C0EFF305831B0618BF6047EFF344
:100220001483DB0708BF604700DF704731450000DB
:10023000EFF30980816911F8021CC9BB10B590E881
:100240000F10E047BDE81040EFF3098C204B93E816
:100250000600914229D081B10CB41EF0100F06BFE8
:100260002CED108A0323012381F821302CE9F00FB3
:10027000C1F824C004F0F0FB0CBC1A60D2F824C012
:10028000BCE8F00F92F8213013F0020F1ABFBCEC5B
:10029000108A6FF0120E6FF0020E8CF3098813F0C3
:1002A000010F08BF704792F82000CCF8000070479B
:1002B00010B5084A1268914209D8074C54F82140F9
:1002C00090E80F10A047EFF3098C8CE80F0010BDE9
:1002D00008010020A0070000A007000010B504F0EE
:1002E000A7FABDE81040194B93E80600914208BFF9
:1002F00070470CB4EFF3098C1EF0100F06BF2CED05
:10030000108A0223002381F821302CE9F00FC1F874
:1003100024C004F0A1FB0CBC1A60D2F824C0BCE8D5
:10032000F00F92F8213013F0020F1ABFBCEC108AC4
:100330006FF0120E6FF0020E8CF3098813F0010FAC
:100340001CBF92F82030CCF8003070470801002024
:1003500010B504F043FCC4E710B503F0B7FA04F09D
:100360003DFCBEE70948804709480047FEE7FEE735
:10037000FEE7FEE7FEE7FEE7FEE7FEE7FEE7FEE755
:1003800004480549054A064B70470000B1090000C2
:100390000501000088610020886700208863002034
:1003A0008863002040EA010310B59B070FD1042A9F
:1003B0000DD310C808C9121F9C42F8D020BA19BA30
:1003C000884201D9012010BD4FF0FF3010BD1AB195
:1003D000D30703D0521C07E0002010BD10F8013BEA
:1003E00011F8014B1B1B07D110F8013B11F8014B11
:1003F0001B1B01D1921EF1D1184610BD10B5431C34
:1004000002E010F8011B71B18107FAD14FF00132FF
:1004100002C88C1A8C4314EAC211F9D0C01A0A0619
:1004200003D0C01E10BDC01A10BD0A0401D0801E2A
:1004300010BD0902FCD0401E10BD40EA010370B59A
:100440009B072ED14FF00136042A2AD308C810C9C1
:100450009D1B9D43121F15EAC61517D0D8B2E1B2F5
:10046000401A50EA056110D198B2A1B2401A50EA80
:1004700005410AD123F07F4024F07F41401A50EA21
:10048000052102D1180EA0EB146070BDA342DBD091
:1004900018BA21BA884201D9012070BD4FF0FF304F
:1004A00070BD0AB9002070BD10F8013B11F8014B76
:1004B00063B1A3420AD1521E08D010F8013B11F8D3
:1004C000014B1BB1A34201D1521EEDD1181B70BDCF
:1004D000421E12F8013F002BFBD111F8013B002B0B
:1004E00002F8013BF9D17047032A40F2308010F046
:1004F000030C00F0158011F8013BBCF1020F6244BF
:1005000098BF11F801CB00F8013B38BF11F8013B4F
:10051000A2F1040298BF00F801CB38BF00F8013BFC
:1005200011F0030300F06780083AC0F0088051F82A
:10053000043B083A51F804CBA0E80810F5E7121D77
:100540005CBF51F8043B40F8043BAFF30080D20796
:1005500024BF11F8013B11F801CB48BF11F8012B62
:1005600024BF00F8013B00F801CB48BF00F8012B85
:100570007047431A28BF9A427FF6B6AF032A104449
:10058000114440F2268010F0030F1EBF11F8013D08
:10059000521E00F8013D10F0030F7FF4F6AF11F08A
:1005A000030300F0C180083AC0F00B8051F8043D0D
:1005B000083A51F804CD40F8043D40F804CDFFF767
:1005C000F3BF121D5CBF51F8043D40F8043DAFF38A
:1005D0000080D20724BF11F8013D11F801CD48BFBA
:1005E00011F8012C24BF00F8013D00F801CD48BFEF
:1005F00000F8012C704710B5203AC0F00B80B1E82C
:100600001850203AA0E81850B1E81850A0E8185047
:10061000BFF4F5AF5FEA027C24BFB1E81850A0E850
:10062000185044BF18C918C0BDE810405FEA827C6A
:1006300024BF51F8043B40F8043B08BF7047D20781
:1006400028BF31F8023B48BF11F8012B28BF20F822
:10065000023B48BF00F8012B704702F0FF0343EA5A
:10066000032242EA024200F002B84FF000020429DD
:10067000C0F0128010F0030C00F01B80CCF1040CD1
:10068000BCF1020F18BF00F8012BA8BF20F8022B05
:10069000A1EB0C0100F00DB85FEAC17C24BF00F8AB
:1006A000012B00F8012B48BF00F8012B70474FF0D9
:1006B000000200B5134694469646203922BFA0E8B2
:1006C0000C50A0E80C50B1F12001BFF4F7AF0907BE
:1006D00028BFA0E80C5048BF0CC05DF804EB8900AF
:1006E00028BF40F8042B08BF704748BF20F8022BF2
:1006F00011F0804F18BF00F8012B7047704770470A
:100700007047431A28BF9A427FF675AF104410F025
:10071000030F11441EBF11F8013D521E00F8013DA8
:1007200010F0030F7FF4F6AF103AC0F00A8010B556
:1007300031E91850103A20E91850BFF4F9AFBDE87C
:100740001040530724BF31E9081020E9081044BFC6
:1007500051F8043D40F8043D12F0030F08BF704704
:10076000D20728BF31F8023D48BF11F8012C28BF3D
:1007700020F8023D48BF00F8012C704710B5044630
:10078000AFF300802046BDE81040FFF715BD000024
:1007900001491820ABBEFEE72600020070470000AA
:1007A0000000000000BE704770B5054600F030F84C
:1007B0000028FBD1144C606A20F002006062A0683F
:1007C00020F0704040F00050A060A06820F47F400E
:1007D00040F4AA40A0602560A06840F00400A0603A
:1007E00000F016F80028FBD1A06808490840A06076
:1007F000606A800705D5606A20F00200606201200F
:1008000070BD002070BD000000200040FF00FF0F01
:100810000248806800F00700704700000020004098
:100820006C2203A1002001F02BFE00F053F8000021
:100830002E2E5C2E2E5C2E2E5C736F757263655CA3
:100840006461706C696E6B5C626F6F746C6F616415
:1008500065725C6D61696E2E6300000009484FF699
:10086000FF71C0F80017D0F80011C903FBD5D0F80C
:10087000001141F00101C0F800110121C0F800177A
:100880007047000000300040094910B50968094A66
:100890000648B1FBF2F14160016D42101143016560
:1008A000FFF7B6FF0028FBD110BD0000002000407C
:1008B000DC00002040420F0030BFFDE700F01F02C7
:1008C000012191404009800000F1E020C0F80011B2
:1008D00070470000BFF34F8F04480168044A01F4D9
:1008E000E06111430160BFF34F8FFEE70CED00E0C4
:1008F0000400FA05BFF34F8F04480168044A01F46D
:10090000E06111430160BFF34F8FFEE70CED00E0A3
:100910000400FA052DE9F04107460C4615469007FC
:1009200002D1FFF775FF10B10120BDE8F0811F4E25
:10093000B06820F0704040F00050B06010E03760C8
:1009400001CD3063B06840F40030B060B06840F072
:100950000100B060FFF75CFF0028FBD1241F3F1DA2
:10096000042CECD29CB12B684FF0FF31FF2063EADE
:10097000000211400002641EF9D137603163B06893
:1009800040F40030B060FFF743FF0028FBD1B068AF
:1009900020F07040B060706A800704D5706A20F063
:1009A00002007062C0E70020BFE7000000200040A6
:1009B00070B52B48016841F470010160BFF34F8F9F
:1009C000BFF36F8FFFF74AFF264C206840F4C050FA
:1009D0002060254D286840F480502860206840F051
:1009E0006000206000F044F8286820F0030040F028
:1009F000010028601B4920310868C20704F1040087
:100A000003D11A4A1268520207D4026842F0030264
:100A10000260026822F003020260026842F00102F2
:100A20000260026822F0010202600A6842F02002BD
:100A30000A60216821F0020121600A4924310A6814
:100A400022F440320A600A6842F4C0420A60016837
:100A500021F004010160002004F032FA70BD0000B2
:100A600088ED00E0300A0040040400400008004027
:100A700070B5294B1868294800220270186840F4A4
:100A80000060186024484C3001684904FCD42448B4
:100A9000C16841F02001C160C16841F40011C1602A
:100AA0001D4C183421681F4D294041F470212160EC
:100AB000816A26686FF30801C6F3C8260E43866272
:100AC000416A41F004014162416A41F00101416221
:100AD000416A41F010014162C1688902FCD5416A56
:100AE00021F002014162C16821F02001C160416A28
:100AF000CE0D2168294041EAC6212160196812B152
:100B000041F4006101E021F400611960416A21F0C3
:100B10000101416270BD0000300A0040D800002091
:100B200000F00140FF07F0FFF0B5364D29684B6932
:100B30004B61354F5A0607F580500CD502882A24A0
:100B4000BE18521C028034700288C2F30B0202806D
:100B50008288521C828013F4E47F4FF4805C11D1B0
:100B60002EE06A6892F800480288BE18521C028083
:100B7000347008224A610288C2F30B020280828824
:100B8000521C8280CA68920606D0B0F90420B0F9DF
:100B90000640121B6245E4DBB0F90420B0F90640C0
:100BA000121B62450CDB02882524BE18521C0280F1
:100BB00034700288C2F30B0202808288521C828049
:100BC00011485A07A0F108001BD5A0F58053B0F9D1
:100BD0000620B0F90440A24213D08A6802F03F0216
:100BE000202A0ED242889C18521C428022786C68BF
:100BF00022704288C2F30B024280C288521CC2801B
:100C0000E5E7F0BDE0000020884C002010B5044668
:100C100001F040FB24F08000810004480844D0F833
:100C2000801221F48071C0F8801210BD00001040C5
:100C300010B5817821F08001082912D2094C402298
:100C400004EB8103C3F8802282781306064A01D59B
:100C5000022300E0012302F8213002EB81018088A9
:100C6000488010BD000010409060002070470000D8
:100C70001449A0B14FF6FF70C1F80802D1F80C0278
:100C800040F4B850C1F80C02D1F8800240F01000D6
:100C9000C1F88002D1F8040240F402700FE0D1F8EC
:100CA0000C0220F4B850C1F80C02D1F8800220F0F8
:100CB0001000C1F88002D1F8040220F00800C1F849
:100CC000040270470000104010B50B4C0B48A2887E
:100CD0000078824200D902461AB907490020143927
:100CE00008718020216801F037FB216801442160F0
:100CF000A188081AA08010BD3001002004690000FE
:100D000010B5064C0020A288216800F0F1FF216890
:100D100001442160A188081AA08010BD3001002084
:100D200070470000044A20F0800002EB80000021A0
:100D3000C0F88012704700000000104070B50446F3
:100D400002F030FA104D24F0800405EB8400D0F856
:100D500080220E4911F824301A4342F05002C0F8A4
:100D6000802211F8240001280CD1204602F01AFA42
:100D7000074901EB84114160402101600120A0403E
:100D8000C5F82C0270BD00000000104090600020EB
:100D9000905E00202DE9F047684F0446A7F1080552
:100DA00080074FF00009A5F1140620D501F0B2FA32
:100DB0003878C009FFF7B4FFF888A8803878C0F306
:100DC000411111B1012966D157E07978DFF87081BE
:100DD0000C2960D2DFE801F0060C5F135F18275F73
:100DE0002B31384601F070F81FE0FFF76DFF5EE031
:100DF000002005E001F09EFAD8F8000039E001205B
:100E000001F0A0F8C0B3F5E710F01F0F43D1B87898
:100E1000012140F08000307000F07F0001F062FAA4
:100E200001F088FA43E000F0ADFF28B3DDE710F0F1
:100E30001F0F30D141481B3812E001F0D3F8D8B170
:100E400001F078FA3F4813E000F01F00012822D19A
:100E5000707888B13879B17888421CD23A49084410
:100E60002860C2E701F082F930B101F063FA374837
:100E70000068E0B180471AE00DE010F01F000AD0D2
:100E8000012808D100F06AF888B900F069F870B953
:100E900000F062F858B93878000603D4F88808B131
:100EA000002000E0802001F01FFAA5F80490600700
:100EB00021D5387800061CD4A888E0B1FFF720FFC0
:100EC000A888C0B93878C0F3411161B101290AD1AD
:100ED00010F01F0007D0012805D100F03BF850B9F1
:100EE00000F036F838B9802001F0FEF9A5F804903A
:100EF00001E001F025FA200712D53878000606D562
:100F0000A888317908430BD0FFF7DEFE08E030787F
:100F1000010605D500F07F003070002101F0E2F9F4
:100F2000600602D50020FFF771FE200604D5BDE85B
:100F3000F0478020FFF76ABEBDE8F0873801002047
:100F40006869000060690000F0000020646900002A
:100F50000020704700207047002070470020704735
:100F600010B51248124A0179127891421BD1427889
:100F70004188C088FE2A09D0FF2A14D199B990B9B6
:100F800000F008FE78B101F0D5F90AE059B901285E
:100F900009D100F019FB30B1074906480860FFF796
:100FA00093FE012010BD002010BD0000380100207C
:100FB00005690000905C0020300100202DE9F04719
:100FC000DFF8DC80D8F80842C8F80842354D200721
:100FD0000FD5286828B1002028603348006800B188
:100FE000804703F07DF904F0C5FB3048006800B18C
:100FF0008047200601D503F073F9E0064FF00107A2
:1010000004D52F602A48006800B18047294E600649
:1010100003D5316809B101208847A00603D531689E
:1010200009B100208847DFF89090E00505D56F6092
:10103000D9F8001009B102208847A00510D5D8F8CA
:101040003072C8F8307201260025374204D059F8B2
:10105000251009B10820884776006D1C082DF4D3AF
:10106000600510D5D8F83472C8F83472012600250E
:10107000374204D059F8251009B10420884776007A
:101080006D1C082DF4D3E00404D5D8F83C02C8F850
:101090003C02FEE7BDE8F0470820FFF70FBC000068
:1010A00000001040F40000201C69000014690000DA
:1010B000186900001069000020690000194810B587
:1010C000016841F0100101601748016841F010010A
:1010D00001601649086820F0407040F00070086018
:1010E000134C0020206001212160C4F80C024FF64F
:1010F000FF71C4F80812C4F80402D4F8041241F0D5
:101100002001C4F80412C4F8040203F0E9F8094805
:10111000C4F82002E820C4F80C02BDE81040082002
:10112000FFF7CCBB0008004004040040400500402D
:1011300000001040005E002070B500F0F5F80028B7
:101140001CD00F4802220F4D027042700E4C03203B
:101150002A632870A068022803D9A4F11F008260C6
:10116000A2600A480649007840F0800001F0F4F8D7
:10117000A068296B401AA0600120207370BD000098
:10118000D05C0020400100207A6100200669000048
:10119000114910B50878022808D0032810D0042877
:1011A00012D0052801D10020087010BD0B48C07B6B
:1011B000282801D0A828F8D1BDE8104000F048BA8E
:1011C000BDE8104000F01CBD0548007840F08000EC
:1011D00000F02EFDF4E70000400100205B610020DC
:1011E000066900001B4910B5087870B301280ED0BD
:1011F00005281DD0072823D01748007800F018FDD7
:10120000164902200873BDE8104000F0F9BC1348ED
:101210001F38C07B2A2803D02F2805D0AA2818D130
:10122000BDE8104000F0E8BABDE8104000F07ABA1E
:10123000BDE8104040F2394209A1002001F020B978
:1012400000200870086B1F2803D1BDE8104000F093
:10125000C3B810BD40010020076900007A6100207A
:101260002E2E5C2E2E5C2E2E5C736F757263655C69
:101270007573625C6D73635C757362645F6D7363D9
:101280002E6300000E4910B54868C86008B10120FF
:1012900010BD0C48816859B1007B000604D50A488E
:1012A000007840F0800001E00848007800F0C0FCC1
:1012B000044901201F31087300F0A2FC002010BD7A
:1012C000400100205B610020066900000769000002
:1012D0001048007900F08F01080605D501F00F00D5
:1012E0004FF48032824001E001228A400A480078AF
:1012F00040F0800088420CD108490968114208D0AA
:101300000749084A0968914203D10D22044901F0B6
:1013100023B870473801002006690000280100202A
:101320007A6100205553425370B50A48022400F1F7
:101330001F05816831B1007B000608D4064800789B
:1013400000F076FC2C7300F05BFC002070BD0120E7
:1013500070BD00005B6100200769000010B50E48F9
:101360000E4C8068216B884202D82063032000E085
:10137000042020700A480B49226B007840F080005E
:1013800000F0EAFF0448226B1F308168891A8160EF
:101390000021017310BD00005B61002040010020AE
:1013A00006690000D05C0020FFF7F2BE064810B5C9
:1013B000028807480549007800F09AFC054908634F
:1013C000BDE81040FFF70EBF0C690000D05C0020A4
:1013D00007690000400100202DE9F047734E326B91
:1013E0001F2A01D2134600E01F230020704D7149CF
:1013F00002E00C5C2C54401C9842FAD3DFF8BC91FC
:101400000127DFF8B4A199F800001F2A40F08000FE
:101410007ED129686A4A91427AD1654C69681F3445
:101420006160A968A160697B19B9A97B09B110291C
:1014300001D927738AE0E97B4FF002082A293ED0C0
:1014400022DC1A294FD00FDC0429F2D006DCE9B3E4
:101450000329EED1BDE8F04700F05ABB1229E8D1CC
:10146000BDE8F04700F0B8B8232944D007DC1B29B9
:1014700035D01E29DDD1BDE8F04700F0DBB82529C5
:101480003DD02829D5D148E09E2940D00FDC5529F0
:10149000CFD004DC2F2954D03529CAD103E05A29F2
:1014A00025D09129C5D1BDE8F04700F0F1BBA129B5
:1014B00029D0A3295DD0A8292FD0AA29B9D100F01D
:1014C00077FA002805D0287B000600E003E04BD423
:1014D0003770BDE8F087BDE8F04700F0E1BBBDE83C
:1014E000F04700F0BBBBBDE8F04700F039BABDE8FB
:1014F000F04700F009BABDE8F04700F0D3BABDE804
:10150000F04700F0A7BABDE8F047FFF715BE00E0CE
:1015100032E0BDE8F04700F04DBB00F049FA00288A
:10152000D7D0287B000605D586F80080BDE8F047B7
:1015300000F08EB89AF8000000F07AFB84F80C8076
:1015400004E0287C800705D400202073BDE8F04724
:1015500000F056BB00F02CFA0028BAD0287B000619
:1015600002D437703762B4E799F8000040F0800089
:10157000E2E700F05DFB5CE74C4600F059FB2078A9
:10158000104C00F00F014FF4803088402168554620
:10159000084320609AF8000000F04AFB2878874052
:1015A0002068074306202760307092E74001002042
:1015B0005B610020D05C0020076900000669000024
:1015C000555342432C01002002490020087001209D
:1015D00070470000905C002010B5FFF7A5FE0028C2
:1015E00020D0114B00208021187059700221997071
:1015F000D97020241C7158719871D8710B480168FA
:1016000008200A7812B11A54491C00E01C54401CEE
:10161000C0B22428F5D3064924200863BDE8104051
:10162000FFF79CBE10BD0000D05C0020EC00002045
:10163000400100200548C07CC107044800F11F009C
:1016400000D00121017300F0DBBA00005B610020D3
:101650002DE9F0412E4D2F4F0026A969686ADFF869
:10166000B88088420AD33878002440F0800000F027
:10167000DFFA88F80C6000F0C3FA08E02849274830
:10168000097830F81140E86A844200D30446FFF735
:10169000F9FD00B90024A86A48B374B1A96AE869E1
:1016A00022460144387840F0800000F055FEA86AD8
:1016B0002044A862E86A001BE862D5E90410AA6A1F
:1016C0004143914203D1AE62696A08446862D8F826
:1016D00008104046091BC8F80810002C05D0E96A1C
:1016E000002902D1032129700673BDE8F081002C86
:1016F000E3D0E96A28690144491EB1FBF0F2686948
:10170000824200D90246E969686A03F0F1FFC5E741
:1017100040010020066900007A610020086900008D
:101720001F0100202DE9F0412F4C00252F4EA1690B
:10173000606A884207D32E482563007800F078FA63
:10174000357300F05DFAFFF79DFD20B1206B08B303
:10175000A06A10B10FE0256320E0E16A206901442E
:10176000491EB1FBF0F26069824200D90246E1698C
:10177000606A03F0BDFF00201E49A36A226B0BE0E4
:10178000D4F81CC01F181CF8077011F800C067457A
:1017900001D0256202E0401C9042F1D3A16A206B87
:1017A0000A18A262E16A0B1AE362D4E904714F439A
:1017B000974203D1A562626A11446162B168091A55
:1017C000B16000280DD013B12078052809D1206A16
:1017D00028B100203073BDE8F04100F011BA0120BB
:1017E000F8E7BDE8F0810000400100207A610020A8
:1017F00007690000D05C00202DE9F041354D00263E
:10180000354FA969686A884207D334482E63007847
:1018100000F00EFA3E7300F0F3F9FFF733FD00B964
:101820002E63296BA86A08442969401E884206D99C
:10183000BDE8F041FD222AA1002000F021BE0020D9
:10184000304905E0AB6AEC690A5C0344401CE25491
:101850002A6B9042F6D3A86A11000844A862EA6A8B
:10186000A2EB0102EA6222D092B988B12969084448
:10187000401EB0FBF1F46869844200D90446224658
:10188000E969686A03F04EFFAE62686A20440DE0C1
:10189000D5E9041202FB01F3834208D1E969686AC1
:1018A00003F040FFAE626969686A08446862B9681B
:1018B000286B091AB960002809D0E86A10B12878A5
:1018C000052804D13E73BDE8F04100F099B9BDE8A8
:1018D000F0810000400100207A61002007690000CB
:1018E0002E2E5C2E2E5C2E2E5C736F757263655CE3
:1018F0007573625C6D73635C757362645F6D736353
:101900002E630000D05C002010B5FFF70DFD00280D
:101910001FD0FFF7B7FC00281BD00E48002106227D
:1019200001700D4B427081701A7AD201C270017140
:1019300041718171C1710949082018638A68082AB8
:1019400003D9A1F11F0290608860BDE81040FFF745
:1019500005BD10BDD05C0020400100207A61002050
:1019600010B5FFF7E1FC00281BD0FFF78BFC002827
:1019700017D00C480321002201700B4942700B7AEA
:10198000DB018370C2700420086308498A68042A56
:1019900003D9A1F11F0290608860BDE81040FFF7F5
:1019A000DDBC10BDD05C0020400100207A61002029
:1019B00070B5244C244DD4F8110000BA20F0FF017A
:1019C000207D01430020C5E90910E07B2F280AD0C3
:1019D00004DC28280BD02A2817D104E0A8280DD031
:1019E000AA2812D106E0FFF74DFC002827D0E08A94
:1019F00041BA0AE0FFF746FC002820D0D4F81500D1
:101A000000BA20F0FF01207E014328690D4E4143BA
:101A1000E962A06801251F3668B1884210D0207B9A
:101A2000000604D50948007840F0800001E008482D
:101A3000007800F0FDF8357300F0E2F8002070BD8A
:101A4000012070BD5B61002040010020066900009C
:101A50000769000010B5FFF767FC00281CD0FFF7EE
:101A600011FC002818D00D4A0D489169491E0B0E33
:101A700003700B0C43700B0A8370C17011690B0E5D
:101A800003710B0C43710B0A8371C1710820106341
:101A9000BDE81040FFF762BC10BD0000400100200F
:101AA000D05C002010B5FFF73FFC002829D0FFF7DD
:101AB000E9FB002825D013480021134A017041702A
:101AC00081700821C17091690B0E03710B0C437179
:101AD0000B0A8371C1710221017211690B0C4372EF
:101AE0000B0A8372C17209490C2010638A680C2AA0
:101AF00003D9A1F11F0290608860BDE81040FFF794
:101B00002DBC10BDD05C0020400100207A61002077
:101B100010B5FFF709FC002835D01B4870211B4B7E
:101B2000017000214170DC685A6832EA040406D072
:101B300006248470282404734173DA6008E0DAB163
:101B4000134A127BE2B10522827020220273417394
:101B5000C1700171417181710A22C27101724172B9
:101B60008172C1728173C173017441741220186350
:101B7000BDE81040FFF7F2BB022282703A22E5E78F
:101B800081700173E3E710BDD05C002040010020AC
:101B90007A61002004490020086004490860044973
:101BA00007200870012070472C0100207A61002076
:101BB0004001002010B5FFF7B7FB002817D00C48F4
:101BC00020220021027041700A4CC1770320226359
:101BD000207009480649007840F0800000F0BCFB06
:101BE0000648226B8168891A81600121017310BD4A
:101BF000D05C002040010020066900007A610020CE
:101C0000084910B50648086007480D22007840F0E2
:101C1000800000F0A1FB05490520087010BD000000
:101C2000555342537A6100200669000040010020AC
:101C300010B5044600F058FB200605D504F00F014E
:101C40004FF48030884001E00120A04002490A683A
:101C50001043086010BD0000280100200A4810B59C
:101C6000817C00F11F0429B101202073BDE81040E0
:101C7000FFF7C6BFC07C054900F00100486003F0D3
:101C80004FFD0020F1E700005B61002040010020D3
:101C9000024900200873FFF7B3BF00007A610020FB
:101CA0000F4810B5816800F11F0469B1007B000680
:101CB00004D50C48007840F0800001E00A48007824
:101CC000FFF7B6FF012004E0FFF7DCFA002805D09B
:101CD00000202073BDE81040FFF792BF10BD000048
:101CE0005B61002006690000076900007047000082
:101CF0002DE9F04792468946054601F053FA35F042
:101D000080071B4E1B4D04464FF0010820D11A4896
:101D10004168E9B100214160524618494846FEF742
:101D2000E3FB99F80010484609060ED4C18861B15A
:101D3000D5F82C12C90708D1A6F190014E60B9F868
:101D4000060008604046C5F82C025046BDE8F08702
:101D5000D4F800A006EB87110E4652464846FEF71F
:101D6000C3FB66604020206008FA07F0EBE7000044
:101D7000905E002000001040F4000020600210403F
:101D8000FFF7A6BA2DE9FC41434BA3F11C051878D7
:101D9000A3F1080410F01F0002D0012879D160E0FF
:101DA0003E483D49DE7802783B4889781C38082E49
:101DB000C0786ED2DFE806F06D04113C6D6D082A24
:101DC0003748206012204AE0002A62D018B1354816
:101DD00020600A2043E03448FAE70AB9012858D0C5
:101DE00018B132480090002008E03148FAE7009A24
:101DF000137813B153881A440092401C8142F6D1E3
:101E000000980178F1B32060408828E0D2B318B17F
:101E100028480090002008E02748FAE7009A137845
:101E200013B153881A440092401C8142F6D1E7E76F
:101E300022480090032901D0002008E001F094FA24
:101E40000BE000990A780AB111440091401C99787E
:101E50008142F6D100980178A1B12060007801900C
:101E600005E001A9684600F02DF800280FD0A188F0
:101E7000019881420AD9124980B2A0800978491E8E
:101E8000084200E005E001D1012028710120BDE8F1
:101E9000FC810020FBE70000380100200169000000
:101EA0006C6900007F6900007E690000A169000084
:101EB00080690000A3690000A2690000A469000015
:101EC000046900000020704770B51C481B4C007866
:101ED000A4F1080410F01F000AD0184AA4F114035A
:101EE000174D59781279012806D0022824D109E02B
:101EF0001248163820601DE0F1B1987882421BD25A
:101F0000002015E002F08F00020605D500F00F0654
:101F10004FF48032B24001E00122824009B900074B
:101F20000AD19868104207D0D868104000D001202C
:101F300028802560012070BD002070BD3801002080
:101F4000905C002070B5264B0246194618784988E7
:101F500010F01F00A3F11C0604D0012829D002288C
:101F600027D111E0012924D132B1012000F0F2F98A
:101F7000F08840F0020005E0002000F0EBF9F08866
:101F800020F00200F08029E0187900F08F0420068C
:101F900005D504F00F004FF48035854001E00125A0
:101FA000A540707828B1200703D0B068284200D03F
:101FB00009B1002070BD2AB1204600F095F9F06803
:101FC00028430AE03069284208D12046FEF71EFE69
:101FD0002046FFF7D5FEF068A843F060012070BDF1
:101FE000380100202DE9F05F5A480026017811F0F1
:101FF0001F0F7DD1574F80781C3FB1464FF0010A2B
:102000004FF4803B002879D0534801783846C07897
:1020100009B901286CD008B1504C68E0504C66E01A
:102020006078022804D0042844D005285DD143E01C
:1020300048486179807881423AD1787020794A495C
:10204000B8700020474A098802E002F80090401C5E
:102050008842FAD30125B8460AFA05F0D8F80810E4
:10206000084202D02846FEF75DFED8F808100BFAA9
:1020700005F0084203D045F08000FEF753FE6D1CCA
:10208000102DE9D34FF00110C8E902090120C8F86A
:102090001090FEF7EBFDE0794006B8F8060002D597
:1020A00040F0010001E020F00100A8F806001CE06B
:1020B00060881BE0E67818E0BEB9A07800F08F05D4
:1020C000280604D505F00F010BFA01F001E00AFA29
:1020D00005F0B96801432046B960FEF7A9FD28461E
:1020E000FEF72CFE284600F0D5F82078044401E0E5
:1020F0002AE003E02078002892D120E04D4687F8BE
:10210000019001245E46B9680AFA04F0084202D040
:102110002046FEF707FEB96806FA04F0084203D02D
:1021200044F08000FEF7FEFD641C102CEBD34FF052
:102130000110C7E9020500203D61FEF797FD054843
:1021400079788078884202D00020BDE8F09F012095
:10215000FBE700003801002001690000A1690000D0
:1021600080690000F0000020026900002DE9F84FAE
:10217000434800273E460078BA4600F01F00B946A3
:1021800001287BD13E491C394878002873D00020B3
:1021900000903C4802780846C0780AB901286DD002
:1021A0008B4608B1384C62E0384C60E06078022819
:1021B00004D0042809D0052857D118E061799BF88C
:1021C0000100814251D0608850E02D48A778E67820
:1021D00001794FF00009B94247D18078B04244D12B
:1021E000012000902A4810F807A0C6553DE0244978
:1021F0000879B84239D1A07800F08F085FEA08600A
:1022000005D508F00F004FF48035854002E0012528
:1022100005FA08F58878B04215D1DBF80810204699
:102220002943CBF80810DBF80C10A943CBF80C10AD
:10223000FEF7FEFC4046FEF781FD404600F02AF81E
:1022400049EA050911E056450FD119EA050F0CD1ED
:10225000DBF808104046A943CBF80810DBF80C1057
:10226000A943CBF80C10FEF75DFD207804442078DC
:1022700000289BD10098BDE8F88FFFE70020FAE71F
:102280003801002001690000A16900008069000098
:10229000F000002070B5044600F084FF0E4D24F0DD
:1022A000800405EB8400D0F8801241F04001C0F8B2
:1022B00080120A4810F8240001280CD1204600F0B2
:1022C00071FF074901EB8411416040210160012049
:1022D000A040C5F82C0270BD0000104090600020A6
:1022E000905E002070470000094930F0800008D05F
:1022F00001EB8000D0F8801241F48071C0F88012A8
:102300007047D1F8800240F44070C1F880027047F5
:1023100000001040082202490020FFF7E9BC00003D
:1023200038010020024841684FF4007001F07AB98A
:102330002400002000221146802000F00DB800008B
:102340000248034902780020FFF7D2BC046900006C
:10235000905C0020704700002DE9F0471446894644
:10236000054600F01FFF194F064625F080000122A8
:10237000D7F8281202FA00F5294222D170B9D7F80D
:10238000801241F48061C7F88012114914B1402CC9
:1023900019D001E08A68A2B100228A60402C00D9DD
:1023A00040240C49224601EB801080464946FEF746
:1023B0009BF8C6F804803460C7F828522046BDE870
:1023C000F0870020FBE78A60EBE700000000104088
:1023D000F4000020905E00204FF0E0214FF4807068
:1023E000C1F88001FFF79EBF0348816821F070416A
:1023F00081600020704700000020004010B5002AD6
:1024000006DA22F00042D21D22F00703102203E078
:10241000D21C22F003030C2213B19C188C4201D968
:10242000012010BD024401448360C0E90021C91AA3
:10243000D018884202D810600246F9E700201060E8
:1024400010BD000010B5044602F046FC002805D07F
:102450004FF6FF71DFF808C0206800DF10BD0000F4
:10246000C947000010B5044602F036FC002803D02E
:10247000DFF808C0206800DF10BD00001947000029
:102480002DE9F04116460F4600281CD1EFF31080CD
:1024900000F0010572B600231A461946184600F0EE
:1024A0009FF8040003D13146384600F0DFF805B943
:1024B00062B6002C07D1EFF30380C00603D1BDE85C
:1024C000F04103F0E3BBBDE8F081000010B5242229
:1024D0000D490E48FEF78FF803F0C6FC0C4803F0D8
:1024E000BDFC03F0CBFA0B490B4A0C4B08604FF4D0
:1024F0000071B0FBF1F01160094901221A60086017
:1025000009490848086010BD6C6500004C2F002088
:10251000C92900007401002050010020540100204E
:10252000580100204C2D00205C0100200448417817
:102530008078814201D00120704700207047000060
:10254000B000002000F0F8BA00F0F6BA00207047A2
:10255000012070472DE9F0414B211848FEF785F81E
:10256000174C184F4B252068144EB84210D1A5883F
:102570004B2D01D22A4601E04FF04B0201D84FF01B
:102580004B050F490D48FDF7AFFF002086F84700C7
:102590004B210B48FEF769F82760A5804122F11D09
:1025A000E01DFDF7A1FF36F8480F24F8480FB0787A
:1025B000A070BDE8F04100F089B800001061002073
:1025C00000000320646C766B10B5044C4121E01DC3
:1025D000FEF74BF80020A4F8480010BD00000320CF
:1025E0002DE9F047184F81461D4616468846F81DCE
:1025F000FDF704FF441CB9F1000002D04146FEF78C
:1026000034F8002006B1308005B12870F879002830
:1026100018D0444502D8F91D224604E0A4EB080076
:10262000C1194246C91DB9F1000F02D0B7F84800E0
:10263000308016B14846FDF757FF15B197F84A00AC
:1026400028700120BDE8F08700000320024880794F
:10265000002800D001207047000003200248807944
:10266000002800D001207047106100202DE9F041C2
:1026700088460746FDF7C2FE104D441C41263146F0
:10268000E81DFDF7F2FF412C02D83946224602E050
:10269000413CE11932462C46E81DFDF725FFA4F820
:1026A000488000F0A9F808B1012003E000F0A6F886
:1026B00000B1022084F84A00BDE8F0810000032048
:1026C000014988717047000000000320704770477F
:1026D000704700002DE9F0410F4606464FF0FF34E9
:1026E0000025DFF83C8012E0705D082101F0CEFD8E
:1026F00084EA006408204146002C02DA81EA44049E
:1027000000E06400401E10F0FF00F5D16D1CBD42DA
:10271000EADB2021204601F0B9FDC043BDE8F0818D
:10272000B71DC1042DE9F0410E4617462021C043D4
:1027300001F0ACFD04460025DFF83C8012E0705D3E
:10274000082101F0A3FD84EA006408204146002C22
:1027500002DA81EA440400E06400401E10F0FF0049
:10276000F5D16D1CBD42EADB2021204601F08EFD33
:10277000C043BDE8F0810000B71DC10470B5144628
:102780000D460646202A07D24FF4EE7209A100201A
:10279000FFF776FE022070BD00F0B4FB08B10E20FA
:1027A00070BD2A462146304600F0F0FC0028F7D0E4
:1027B0001C2070BD2E2E5C2E2E5C2E2E5C736F7531
:1027C0007263655C6461706C696E6B5C6472616796
:1027D0002D6E2D64726F705C6961705F666C6173E1
:1027E000685F696E74662E6300000000C10600F029
:1027F0000F0000D409307047012070470020704757
:1028000010B500231A4600F0CFF9002800D00120AF
:1028100010BD10B503F058F8012800D0002010BDFD
:102820002DE9F041154E4FF480344FF4FC253078FB
:10283000012806D04FF49B7211A10020FFF720FE63
:1028400009E0B078022748B14FF49E720CA1002035
:10285000FFF716FE37700220BDE8F081204600F039
:102860002BF810B137701E20F6E704F50054AC4287
:10287000F4D30120B0700020EEE700008C000020AF
:102880002E2E5C2E2E5C2E2E5C736F757263655C33
:102890006461706C696E6B5C647261672D6E2D642F
:1028A000726F705C6961705F666C6173685F696E9E
:1028B00074662E630000000070B51F4E0446307829
:1028C000012805D0FE221DA10020FFF7D9FD18E048
:1028D0004FF40050B4FBF0F100FB1141022511B19F
:1028E0004FF4837208E0F17869B1D6E9021211441D
:1028F000A14208D040F20D1210A10020FFF7C0FD48
:102900003570022070BDB4F5604F11D30121F17014
:10291000C6E90240204600F041FE222803D00028EC
:10292000F0D0357070BD204600F0ECFA0028F9D0E8
:1029300035701D2070BD00008C0000202E2E5C2EF6
:102940002E5C2E2E5C736F757263655C6461706CB7
:10295000696E6B5C647261672D6E2D64726F705C62
:102960006961705F666C6173685F696E74662E631F
:10297000000000004FF400507047000010B52428FC
:1029800004D2064951F82000002805D1832204A171
:102990000020FFF775FD0AA010BD00008064000054
:1029A0002E2E5C2E2E5C2E2E5C736F757263655C12
:1029B0006461706C696E6B5C6572726F722E63001D
:1029C00000000000704700002DE9F0411E4615464A
:1029D0000C46074603F0D4FA022C1ED0002C2FD14F
:1029E000384602F02DFB03282AD0304603F02AF89F
:1029F000800725D4384602F023FB0746304603F013
:102A000023F80446304603F021F801463B462246AF
:102A10002846BDE8F04102F089BC0A480068A84297
:102A20000ED1304603F010F80446304603F00EF89D
:102A30000646384602F004FB034622463146E7E7E5
:102A4000BDE8F0814C2F00202DE9F0411B4E0446DB
:102A50001746B07F8846550258B92946404602F0CD
:102A6000ABFA032802D0214602F00CFCB07F00280C
:102A70000FD07068A0420CD8B068A0420BD008D923
:102A8000F068401C00D1F460F068A04200D2044617
:102A9000F460BDE8F081B0692A461044B061E019E5
:102AA000B060F07F20B1BDE8F041002002F08ABCA8
:102AB00041462046BDE8F04102F08CBB4C2F00207F
:102AC000F0B518A185B0096804910278002104AB23
:102AD0005C5C944224D0491C0329F9D312A1002242
:102AE00091E878006F46815C8DE87800A1F1610C77
:102AF000BCF1190F14D9202901D2052910D14FF0AA
:102B0000000C17F80CE08E450AD00CF1010CBCF15A
:102B1000100FF6D3521C0B2AE5D3012005B0F0BDEF
:102B20000020FBE7E5002000222A2B2C2E2F3A3B29
:102B30003C3D3E3F5B5C5D7C70B50D4D00202C78CC
:102B400074B100212970A97809B100F0CFFA022CE4
:102B500005D06978032902D0002800D1212070BD5A
:102B600040F2331203A10020FFF78AFC022070BD5F
:102B7000600000202E2E5C2E2E5C2E2E5C736F7556
:102B80007263655C6461706C696E6B5C64726167D2
:102B90002D6E2D64726F705C666C6173685F646526
:102BA000636F6465722E630070B51D46044630295C
:102BB00001D3012000E0002040220EA1FFF760FCBD
:102BC000606A194A216A90420AD11848814201D1AB
:102BD000022070BD1548FC38814208D1012070BD2B
:102BE000204602F057FE00B90DB1032070BD002051
:102BF00070BD00002E2E5C2E2E5C2E2E5C736F7529
:102C00007263655C6461706C696E6B5C6472616751
:102C10002D6E2D64726F705C666C6173685F6465A5
:102C2000636F6465722E6300049996978F9E939BE1
:102C30002DE9FF5F4FF00005DDF838905FEA0308EB
:102C4000934607462C4614D05FEA090011D00020B5
:102C5000C8F800000646C9F80000FFF7CDFDDFF810
:102C60008CA090B14FF48030022F04D0032F0AD0F3
:102C700023E0652234E0BBF1000F04D001998142CA
:102C800001D0182519E006460EE0FFF7B7FD98B110
:102C9000012F02D0032F0AD00FE0BBF1000F03D0A9
:102CA000019808B1172508E0DAF8004005E010485F
:102CB00086681048046800E01925FFF749FC08B948
:102CC000012F04D02DB1284604B0BDE8F09F19258E
:102CD000F9E724B1C8F80060C9F80040F3E79D2285
:102CE00005A10020FFF7CCFB0220EDE7686500009E
:102CF00038640000486500002E2E5C2E2E5C2E2EBF
:102D00005C736F757263655C6461706C696E6B5C3B
:102D1000647261672D6E2D64726F705C666C617396
:102D2000685F6465636F6465722E630010B50C4C58
:102D3000207830B1AC220BA10020FFF7A1FB0220CC
:102D400010BDFF2230211448FDF787FC01202070C0
:102D5000002060706060A060E060A070E07010BD56
:102D6000600000202E2E5C2E2E5C2E2E5C736F7564
:102D70007263655C6461706C696E6B5C64726167E0
:102D80002D6E2D64726F705C666C6173685F646534
:102D9000636F6465722E6300D00800202DE9FE4F3A
:102DA000484F0546894638781446012807D0C12285
:102DB00045A10020FFF764FB0220BDE8FE8FF878F4
:102DC0004FF0010A18B9BD60FD6087F803A0B8781C
:102DD0004FF00308002852D1F868854201D1012143
:102DE00000E000212044F86031B37868C0F130067B
:102DF000A64200D916464149324608444946FDF7E5
:102E000073FB7868A41B3044B144354478603028A3
:102E10002BD302D14FF0010001E04FF000004FF042
:102E2000E30229A1FFF72CFBD7E901120123334864
:102E3000FFF7BAFE787001E087F8018001A80090E2
:102E400002AB01227878B968FFF7F2FEE8B9B878EA
:102E5000FC2280F001001CA1FFF712FB019800F09A
:102E6000EBF890B987F802A001E0B87880B1D7E913
:102E70000120224900F052F838B9B87840B1224612
:102E80004946284600F04AF810B187F8008094E7D8
:102E90007878012804D0022805D003280FD105E056
:102EA0004FF4604004E04FF4FC2001E01448C06897
:102EB0002919814203D30220387010207DE70020B9
:102EC0007BE70000600000202E2E5C2E2E5C2E2E54
:102ED0005C736F757263655C6461706C696E6B5C6A
:102EE000647261672D6E2D64726F705C666C6173C5
:102EF000685F6465636F6465722E6300D0080020AC
:102F00003864000010B5EFF3108101F0010472B6CF
:102F1000FDF74AFC002C00D162B610BD2DE9F84F38
:102F2000364E04460025307817468846012805D0DD
:102F3000782233A10020FFF7A3FA0BE070694FF06D
:102F4000020A844209D280222DA10020FFF798FABC
:102F500086F800A00220BDE8F88FB0784FF0010B92
:102F600048B986F802B0204601F030FF050002D0D3
:102F700086F800A040E0B1464E46D6E9010281182D
:102F8000A14214D8B1698B682A499847050002D03C
:102F900089F800A030E0B168FF2226480091FDF7D3
:102FA0005CFB86F801B071680098084470600FB34C
:102FB000D6E903010844A04204D8204601F006FFE8
:102FC0000500E5D17068B168B146201A0E1AB74203
:102FD00000D23E461749324608444146FDF784FA7E
:102FE00036B1002089F801003444B044BF1BC3E768
:102FF0000120F7E7C9F814402846ACE7700000202C
:103000002E2E5C2E2E5C2E2E5C736F757263655CAB
:103010006461706C696E6B5C647261672D6E2D64A7
:10302000726F705C666C6173685F6D616E6167651D
:10303000722E63000009002070B51D4D04462878EB
:1030400008B146222BE04CB3606838B3A06828B3BF
:10305000E06818B3206908B36069F8B1A069E8B105
:10306000FF224FF480611348FDF7F7FA01266E70D6
:103070000020A8706860A860E8602861C5E90504C0
:1030800020688047002808D1A869006980470400AB
:103090000BD0A86940688047204670BD4C2206A12D
:1030A0000020FFF7EDF9022070BD2E7070BD00000A
:1030B00070000020000900202E2E5C2E2E5C2E2E8B
:1030C0005C736F757263655C6461706C696E6B5C78
:1030D000647261672D6E2D64726F705C666C6173D3
:1030E000685F6D616E616765722E630070B5184C24
:1030F0000025207810B1012807D00FE0CA2215A1C1
:103100000020FFF7BDF9022070BD607830B9A069DA
:103110001D498368D4E9010298470546A0694068C3
:1031200080470646FF224FF480611748FDF795FA65
:10313000012060700021A1706160A160E1602161E7
:10314000616121700EB1304670BD284670BD00002F
:10315000700000202E2E5C2E2E5C2E2E5C736F7560
:103160007263655C6461706C696E6B5C64726167EC
:103170002D6E2D64726F705C666C6173685F6D613B
:103180006E616765722E63000009002010B5EFF3D1
:10319000108303F0010472B6FDF7BCFB002C00D1D4
:1031A00062B610BD802807D040B1054920F08000EC
:1031B00001EB0010103070470148FBE700487047F2
:1031C000005E00200346012201490020184700004C
:1031D0007C2F00200248D0F89002C0B27047000057
:1031E000003014420F48016809B9012101600E48FE
:1031F00050F8CC1F21F0070140F8401901686FF327
:103200000B0141F0010141F4887140F8081B01688D
:1032100021F4702140F8C01B016821F47021016085
:10322000704700005804004000A00040034908B166
:10323000002000E00120086070470000841914425B
:10324000034908B1002000E0012008607047000039
:1032500080191442034908B1002000E001200860F1
:10326000704700008819144270B5104C00204DF6CC
:10327000FC716060A060E0602061FFF72BFA606085
:103280000B494FF48030FFF725FA4FF40055A0604A
:1032900029464FF46040FFF71DFAE06029464FF4DD
:1032A000FC20FFF717FA206170BD00000400002029
:1032B000FCDF060000487047180000200021064B84
:1032C0000A6A01209A4200D00020496A034A9142CA
:1032D00000D0002070470000939D939B049996971F
:1032E00000B5FFF7EBFF002801D00020806A00BD89
:1032F00001484068704700000400002001488068D1
:1033000070470000040000200048704718020020A9
:1033100000487047D601002001200104054B0A6ACD
:103320009A4200D00020496A034A914200D000200E
:10333000704700008F9E939B0499969700B5FFF706
:10334000EBFF002802D04FF48030806A00BD0000FF
:1033500000487047C901002000487047F70100206D
:103360000048704798010020004870472102002063
:10337000004870471D00002070B5FFF775FF1F481B
:1033800000F00AFF01F0C4FC1C4831212030FDF799
:103390008EF91A481A492030FDF79AF8174819A1F2
:1033A0002030FDF795F815495E31A1F13E00FDF79B
:1033B0008FF81249A031A1F18000FDF789F80F487C
:1033C00000242030FDF71AF80C4AC1B20220A932BD
:1033D00000EB410010700320507002200023A2F186
:1033E000890508E02E5D1654401CC0B21354401CE1
:1033F000641CC0B2E4B28C42F4D370BD78010020EA
:1034000018000020303030300000000010B5124CA1
:10341000207830B1612211A10020FFF731F802209D
:1034200010BD002211461046FDF72EFA08B11A20F1
:1034300010BD00206070A070E070A060E06020719E
:1034400020616061A0614FF400511248FDF70DF951
:1034500001202070002010BD8C0000202E2E5C2E3C
:103460002E5C2E2E5C736F757263655C6461706C8C
:10347000696E6B5C647261672D6E2D64726F705C37
:103480006961705F666C6173685F696E74662E63F4
:1034900000000000000D00202DE9F0472F4F0446EA
:1034A000164638788A464FF480324FF4FC210128C2
:1034B00008D04FF4BC722AA10020FEF7E1FF0220E1
:1034C000BDE8F08791464C4502D38846444501D378
:1034D0001F20F5E7FFF792F980B3C4F5FC25281FFC
:1034E000B04201D9324600E02A1F5146B869FFF7C1
:1034F00019F9B861B4F5903F09D22748A4F5803492
:10350000204432465146FCF7EFFF0020D8E7A119CE
:10351000414521D10AEB050111F8012C51F8041C99
:1035200062F31F61884201D02320C9E75246314629
:103530002046FFF72BFE10B11C20C1E70CE04FF432
:10354000005215494846FFF719F90446FFF78CFE6B
:10355000012078702046B3E72220B1E78C000020DC
:103560002E2E5C2E2E5C2E2E5C736F757263655C46
:103570006461706C696E6B5C647261672D6E2D6442
:10358000726F705C6961705F666C6173685F696EB1
:1035900074662E6300000000000D002070B5044624
:1035A00011484FF480354FF4FC210078012807D0F2
:1035B0004FF4DD720DA10020FEF762FF022070BD06
:1035C000AC4201D38C4201D31F2070BDFFF716F926
:1035D00040B12846844205D12946BDE870402022EA
:1035E000FFF7CCB8222070BD8C0000202E2E5C2E60
:1035F0002E5C2E2E5C736F757263655C6461706CFB
:10360000696E6B5C647261672D6E2D64726F705CA5
:103610006961705F666C6173685F696E74662E6362
:10362000000000000246084810B500EB810050F889
:10363000040C002806D0114601F042F9BDE8104004
:1036400001F02EB910BD0000BC07002070B5FFF7D7
:10365000C9FD144D0024E00701D0002000E0012046
:10366000FFF7F8FD641CAC42F5D3FEF773FFFFF7DC
:10367000B1FD68B10C4CA06802F00CF940B1FEF746
:10368000EDFF28B90949A068086003C8FCF79AFD56
:10369000FCF7A0FD064A07490748DFF820C000DF15
:1036A000002070BDFFFF7F003864000008ED00E0DF
:1036B000100300200A200300D93600008D4A0000C4
:1036C000044901220A7008B1022000E0012048707C
:1036D00070470000240000200126FEF7BFFF18B14C
:1036E0006420DFF810C100DFDFF80CC100DF434FBA
:1036F00078600020FFF7A4FD0020FFF797FD002071
:10370000FFF7A8FDFFF738FE01F0C6FF012002F029
:10371000DDFA002001F0BEFF4FF0000887F80380BB
:103720000120C7F80880B8700B244346344A48F695
:103730000B013448DFF8D0C000DF4FF6FF7940F2CC
:10374000032A002249465046DFF8C0C000DFDFF8F8
:10375000C0C000DF0546800501D5FDF72FFCE80756
:103760002CD05A2002F0CAFAF878012806D1B8689D
:1037700010B1401EB86001D187F80380B87858B303
:1037800001280ED0032814D0042817D1F878A8B93E
:103790000CB1641E12D1002001F07CFF87F802807A
:1037A0000CE00CB1641E09D1012001F073FF03206D
:1037B00003E001F067FF08B10220B870A807C0D588
:1037C00038780028BDD07878012801D00228B8D1F7
:1037D000012E03D0012602E0FDF77CF800260EB191
:1037E000012801D0012000E0002038703046FFF7AA
:1037F00031FDA6E735440000D94C0000240000202C
:1038000088020020895100005D4C0000F544000052
:103810003D440000FFF78ABA10B5044640F201119A
:10382000FCF723FF00F046FD00202070BDE81040AB
:10383000FFF77CBA012805D0022805D0032814D050
:10384000CF2202E0C32200E0C72209A10020FEF738
:1038500017FEBFF34F8F10480168104A01F4E06172
:1038600011430160BFF34F8FFEE7CB22EDE700006D
:103870002E2E5C2E2E5C2E2E5C736F757263655C33
:103880006461706C696E6B5C5254585F436F6E6616
:1038900069672E63000000000CED00E00400FA05EB
:1038A000FEE70000074801684FF0E0204161002179
:1038B0008161072101610448016841F07F41016095
:1038C000401770471865000020ED00E07047704712
:1038D0002DE9FF5F05460198109C05EB000ADFF813
:1038E000C8910020206099F80300DFF8C0B11F469E
:1038F000002819D0002089F803005E469BF80020BC
:10390000311D1846FCF7F0FD307821680744084463
:103910002060D9F80400B6F801106FF30F000843D7
:1039200031780144C9F80410A3E028780A2815D09A
:103930000D2813D03A287DD099F800104E46002962
:1039400079D0FEF753FF00F00F0270781BF80030BB
:103950001A430BF80020401C707085E0534A002188
:10396000084613785B1D04E0165C401C3144C9B264
:10397000C0B28342F8D809B104267EE099F802105B
:10398000002975D1012189F80210BBF801105E46AB
:1039900091FA91F8ABF801809BF8030020B101285F
:1039A0002BD0042864D12AE04049252201F12500CA
:1039B000FCF79AFDD9F80400010C090441EA08015A
:1039C000814204D0012089F80300022655E03278B4
:1039D000311D3846FCF788FD3078216807440844DB
:1039E0002060D9F80410B6F801206FF30F011143DD
:1039F00032781144C9F804103AE001263DE021680C
:103A00000E98FF22411A3846FCF727FE2168D9F8A4
:103A10000420521A0F990A600199AAEB05028A1A2A
:103A200002990A60BBF8041049BA09040220C9F8D7
:103A3000041001E003E00EE004B0BDE8F09F252192
:103A40001A48FCF712FE002089F8000089F80100EE
:103A500089F802000CE07178252923D2FEF7C6FE12
:103A6000727800010BF802003078D8B10020307075
:103A70006D1C55457FF459AF002621680E98FF2232
:103A8000411A3846FCF7E9FD2168D9F80400411ACB
:103A90000F9801600198AAEB0501411A0298016094
:103AA0003046C6E70120E2E7A8000020002D0020F4
:103AB0002DE9F05FDFF8F4800446154698F8000021
:103AC0008B464FF4FC2A012805D0A12238A1002002
:103AD000FEF7D6FC3EE02020B4FBF0F3020200FB30
:103AE0001343114602260BB1AA222DE0202D04D348
:103AF000B5FBF0F300FB135008B1B12224E0B4FB96
:103B0000F1F002FB10402844884201D9B8221BE0A2
:103B100098F8020078B998F8030050B1D8F8080076
:103B2000844204D3D8F80C100844A04203D8C6221B
:103B30000AE0C02208E098F8040070B1D8E9040156
:103B40000844A04209D0CE2219A10020FEF798FC1B
:103B500088F800600220BDE8F09F6719B4F5604F57
:103B600000D2BFB94FF0010988F804902A4659469F
:103B70002046C8E90445FFF78FFC222804D000281E
:103B8000E9D088F80060E6E75A4629462046FFF764
:103B9000FDFA18B188F800601C20DCE7574503D314
:103BA000FFF762FB88F801900020D4E78C0000202A
:103BB0002E2E5C2E2E5C2E2E5C736F757263655CF0
:103BC0006461706C696E6B5C647261672D6E2D64EC
:103BD000726F705C6961705F666C6173685F696E5B
:103BE00074662E6300000000202070472DE9F0412C
:103BF0008846044610444FF48061B1EB402F08D250
:103C000040F23A2213A10020FEF73AFC0020BDE862
:103C1000F081560231464046FCF727FD6002450917
:103C2000102D15D24FF40077B7EB442F01D90120A6
:103C300000E000204FF4117206A1FEF721FC604263
:103C400007EB4022104800EB45114046FCF74CFCC6
:103C50003046DCE72E2E5C2E2E5C2E2E5C736F75AC
:103C60007263655C6461706C696E6B5C64726167E1
:103C70002D6E2D64726F705C7669727475616C5F05
:103C800066732E6300000000803A002010B50B46DA
:103C90004FF4007408B1002010BD224602491846B6
:103CA000FCF722FC204610BDC03300202DE9F04176
:103CB0000C4610B10020BDE8F081204F3878012873
:103CC00037D0022837D0002508461DA101F098FD05
:103CD0000646A0191DA101F093FD0644A0191D4937
:103CE00001F08EFD0644A0191BA101F089FD0644D8
:103CF000A0191AA101F084FD0644A019798801F0E9
:103D000088FD0644A01914A101F07AFD064475B19E
:103D1000A01914A101F074FD0644A019294601F070
:103D20006FFD851960190CA101F06AFD4619304636
:103D3000C1E70FA5C8E711A5C6E70000BC00002039
:103D40004173736572740D0A0000000046696C656A
:103D50003A2000007C3100200D0A00004C696E659D
:103D60003A200000536F757263653A20000000002E
:103D7000426F6F746C6F6164657200004170706CAB
:103D800069636174696F6E0070B50C4608B10020FC
:103D900070BD08467DA101F033FD0546601988A17C
:103DA00001F02EFD0544FFF7DBFA0146601901F032
:103DB00027FD0544601985A101F022FD0544601925
:103DC00083A101F01DFD0544FFF79EFA014660192D
:103DD00001F016FD054460197CA101F011FD0544B8
:103DE00060197EA101F00CFD0544FEF7AFFB08B1A0
:103DF0007EA100E07EA1601901F002FD054460197A
:103E000072A101F0FDFC054460197AA101F0F8FCF3
:103E10000544FEF79DFB08B174A100E074A1601990
:103E200001F0EEFC0544601968A101F0E9FC0544CD
:103E3000FEF7E2FC08B175A600E077A6601979A14B
:103E400001F0DEFC05446019314601F0D9FC05445F
:103E500060195EA101F0D4FC05446019314601F0FF
:103E6000CFFC0544601973A101F0CAFC0544FFF7BB
:103E70007FFA0146601901F0C3FC0544601953A1A3
:103E800001F0BEFC0544FEF7B7FCA0B9FFF716FA37
:103E900088B160196AA101F0B3FC0544FFF720FA6C
:103EA00001466019042201F0DEFC0544601947A1B7
:103EB00001F0A6FC0544FEF7A1FCA0B9FFF72CFA1F
:103EC00088B1601964A101F09BFC0544FFF736FA44
:103ED00001466019042201F0C6FC054460193BA1AB
:103EE00001F08EFC0544601960A101F089FC0544D5
:103EF000601961A101F084FC0544601933A101F04F
:103F00007FFC0544601967A101F07AFC0544601943
:103F1000012101F07EFC054460192CA101F070FC28
:103F20000544601963A101F06BFC0544601966A1AA
:103F300001F066FC0544601924A101F061FC054410
:103F4000FFF7BCF980B1601960A101F059FC05448C
:103F5000FFF7CEF90146601901F02AFC054460190B
:103F60001AA101F04DFC054460195DA101F048FC67
:103F70000544FFF7C3F90146601901F019FC054437
:103F8000601912A101F03CFC284470BD232044417B
:103F9000504C696E6B204669726D77617265202D99
:103FA000207365652068747470733A2F2F6D626595
:103FB000642E636F6D2F6461706C696E6B0D0A0007
:103FC000556E697175652049443A20000D0A00005C
:103FD0004849432049443A20000000004175746F6D
:103FE0002052657365743A20000000003100000023
:103FF000300000004175746F6D6174696F6E2061EF
:104000006C6C6F7765643A2000000000426F6F743B
:104010006C6F616465720000496E746572666163FD
:10402000650000004461706C696E6B204D6F6465C3
:104030003A2000002056657273696F6E3A200000C6
:10404000426F6F746C6F616465722056657273693C
:104050006F6E3A2000000000496E746572666163FD
:10406000652056657273696F6E3A20004769742047
:104070005348413A200000006261363165323262B5
:1040800065376536316334333263623561316539A2
:104090003236356564333464336566623962323092
:1040A000000000004C6F63616C204D6F64733A2018
:1040B0000000000055534220496E746572666163CA
:1040C00065733A20000000004D534400426F6F7446
:1040D0006C6F61646572204352433A20307800006F
:1040E000496E74657266616365204352433A2030BD
:1040F000780000002DE9F0410D46064601F0DEFD96
:10410000FEF73CFC0746FCF779F9044616B100209F
:10411000BDE8F081024639462846FCF7E5F90D2056
:104120002855601C0A212954A01CF1E710B50C4643
:1041300008B1002010BD4FF40071204601F022FAB2
:104140002046BDE81040FCF759B900002DE9F041C8
:10415000084D06460F462846FCF750F9044616B1AE
:104160000020BDE8F081024629463846FCF7BCF93C
:104170002046F6E7C871000010B50B464FF40074F6
:1041800008B1002010BD224602491846FCF7ACF9E0
:10419000204610BDC03100200449D1E900235A4017
:1041A000D1E902314B405A4002607047181000407C
:1041B00010B5084654022146FCF757FA204610BDB8
:1041C00070B5234D4FF0FF346878A978884201D04C
:1041D000012000E0002040F2E3121EA1FEF750F99A
:1041E0006878022803D0B0B1012818D020E0264812
:1041F0004FF4FA74007FD8B1012809D0022817D0F3
:10420000032815D0621C13A10020FEF739F90FE036
:1042100044F620640CE0A878022808D008E0A878CA
:10422000022801D018B103E040F6C41400E00024D5
:10423000601C05D140F2052206A1FEF721F90024F9
:10424000A868A04201D9012070BD002070BD000007
:10425000B00000202E2E5C2E2E5C2E2E5C736F750F
:104260007263655C6461706C696E6B5C64726167DB
:104270002D6E2D64726F705C7666735F6D616E611A
:104280006765722E630000004C2F002070B5034656
:1042900000200246012609E0DC0704D08D1A6D1EBD
:1042A00006FA05F420435B08521CD2B28A42F3D3CB
:1042B00070BD000010B525210748FCF7D6F9064867
:1042C00025212530FCF7D1F9044800214160017017
:1042D00041708170C17010BD002D0020A800002029
:1042E0000D4810B5002101604160816020210B481C
:1042F000FCF7BBF90A49D1F8800240F05300C1F83D
:1043000080020120402201EB8003C3F88022401C80
:104310000828F8D310BD0000F400002090600020B1
:10432000000010400146EFF3108000F0010272B669
:10433000086808B103680B60002A00D162B67047B4
:1043400070B50D46002812D04FF6FF71084C884218
:1043500004D222680146104600F0D4FA2068457065
:10436000044800F0F8F8BDE8704000F087BB70BD6D
:1043700008010020B06000207047000070B51A4EA0
:10438000F06800282ED0B08A401EB082002523E0BD
:10439000A06838B161684160606810B1A16881604F
:1043A0006560A56010482146183800F0CFFAA08A51
:1043B000B0826078042804D10C49E08A0988084456
:1043C000A0820120607084F82000E068F060E0685E
:1043D00008B10661E5602561B08A002802D1F46861
:1043E000002CD5D170BD0000C86000201001002055
:1043F00070B504000FD00D4DA17801262868827891
:1044000091420CD900F0BEFA286846702046BDE8FB
:10441000704000F033BB064800F09DF8F7E7667087
:104420002146BDE87040024800F090BA0801002023
:10443000B06000200321FFF783BF0000014800683F
:10444000408B70470801002010B50446008B0843DC
:1044500020836278618B062A16D0052A17D108427C
:1044600015D001EA0002628388432083204600F0D1
:10447000ADFA01206070022084F820002146BDE8DA
:104480001040034800F062BA31EA0002ECD010BDDF
:10449000B0600020024670B5154800EB810050F86E
:1044A000044C002C22D0208B104320836178658B34
:1044B000062918D0052919D1284217D005EA00018C
:1044C0006183A8432083204600F080FA208BA84314
:1044D000208301206070022084F820002046BDE87F
:1044E0007040FFF785BF35EA0001EAD070BD0000DB
:1044F000BC07002070B503460C480D460468208BAD
:1045000042B133EA000101D0062109E0984320833B
:10451000022070BD10EA030101D06183F6E7052196
:1045200063832846FFF70CFF012070BD08010020BF
:10453000814202D342688A4201D801207047EFF3DA
:10454000108212F0010F72B603680B60016000D197
:1045500062B60020704701464068002342684A6006
:104560000A78022A05D0012A03D0032A01D0436029
:10457000704742680AB191604360836070470000F1
:1045800070B5044600201546207001226270A170AB
:104590006060A060E0602061A082E0822083608390
:1045A00084F8200084F82100608C18B90448FFF7D3
:1045B000B9FEA06229462046BDE8704000F004B86C
:1045C000000700207047000010B5428C920803D10C
:1045D0000E4A1288C2F38D02836A03EB82035A07E4
:1045E00000D51B1F4FF0807243E9021200221446CF
:1045F000403B43F82240521C0E2AFAD3C2691A6289
:104600004362C162806A0249016010BD1465000006
:10461000A52E5AE20349044A0968C8821288104448
:1046200088827047080100201001002007480168B7
:1046300007488A8A0088CB8A101A1A4480B28A8274
:10464000010402D40421FFF77BBE7047080100205B
:10465000100100202DE9F041044640680F46002675
:1046600020B16078022818D0A08980B3A089E189A0
:10467000884241D2208904EB8000076172B6A0898C
:10468000401CA08162B62089401C80B22081E18953
:10469000884200D12681BDE8F08166702046FFF790
:1046A0005AFF80F820602189054604EB8101C0692A
:1046B000086172B6A089401CA08162B62089401CA6
:1046C00080B22081E18988420BD1268109E0FFE791
:1046D0002046FFF740FF0546C0690421076085F8C2
:1046E000201001206870284600F070F92946BDE8C6
:1046F000F041044800F02AB9BDE8F0410320FFF77B
:1047000099B80000B06000200321017000214170C1
:1047100041804160816070472DE9F0470446408840
:1047200020B1274EA1683268914202D0FF20BDE837
:10473000F087401E0004000C60803ED13168607834
:10474000DFF88080887061684FF00009012739B375
:104750002046FFF700FF0546052085F82000284683
:1047600000F034F96780A560A87860703168D8F8E7
:1047700004008A788078824201D328460AE01148F2
:1047800000F0E4F829460F4800F0E0F83068477080
:104790006F7010E0FFF72CFE316881F820900CE07C
:1047A000D8F804108A783168824206D9054800F0AA
:1047B000CDF8306847700020ECE70020B7E7000034
:1047C00008010020B060002070B5184D0E46044668
:1047D0004188286839B1A168814208D16088401CAD
:1047E0006080002070BDA06080786070F6E776B1D0
:1047F00062788078824203D28870A06800F0CCF89A
:10480000606830B12046296800F0A0F808E0012077
:1048100070BD28686060296800204860286884604E
:1048200009213046FFF78CFDF1E700000801002068
:1048300070B51848012102685170006800F0A2F8B4
:10484000154D6C7812E005EBC40148680278C2B1DE
:10485000012A1BD000F0E6F8E878641C844200D1FD
:10486000002472B6A878401EA87062B6A878002806
:10487000E9D16C700948FFF76EFEBDE8704000F0AA
:10488000FDB8098989B2FFF7DFFDE5E78968FFF721
:10489000E1FEE1E70801002098070020B060002059
:1048A0000548017811B101214170704703494FF06B
:1048B00080500860704700000001002004ED00E017
:1048C000F0B40F4FBC1CFE783D4672B6BA78B242C7
:1048D00007D2521C22702A78531CB34200D1002305
:1048E0002B7062B6FB78934205D907EBC202C2E98E
:1048F0000101F0BC7047F0BC0220FEF79BBF000036
:1049000098070020104A10B5D368ABB113469B8AB4
:1049100003E08CB12246A48A2344D4688B42F8D3A6
:10492000C460D0600261C46804B12061591A8182F8
:10493000908A401A908210BD0024C460D060C91AC9
:1049400002619182848210BDC860002030B5027877
:104950000024022A03D0012A01D0032A00D1012415
:104960008B7800E01046426812B195789D42F9D2EA
:104970004A6041601CB102B19160886030BD002086
:10498000FBE7000003494A684260002282604860F9
:1049900070470000B060002010B5836804462BB952
:1049A000607801280ED1084B03E09B681878002836
:1049B000FBD0204600F01EF82146BDE81040184606
:1049C000FFF7C4BF10BD0000B060002010B5016942
:1049D00000290ED0C268CA60C36800223BB18B8A2E
:1049E000848A23448B82C3681961C26000E08A8292
:1049F000026110BD816839B142684A60416800298E
:104A000001D0806888607047054906E04A688242A4
:104A100002D140684860704711460029F6D17047BE
:104A2000B060002010B5416879B1FFF794FD0446ED
:104A3000FFF7CCFF01206070032084F8200021469E
:104A4000BDE810400348FFF781BF4188491C418001
:104A500010BD0000B060002006480068D0E90910D1
:104A6000814203D300680449884202D00120FEF746
:104A7000E1BE704708010020A52E5AE202494860B5
:104A80000221417070470000080100202DE9F04725
:104A90001646414A81468846002005463D4912880F
:104AA00002E041F82050401C9042FAD33B483022AB
:104AB00001883B48FDF7A2FC3A48008880B240F0EC
:104AC0000042394801683948FDF798FC3848082207
:104AD000018838480068FDF791FC374CFF27374ABA
:104AE000E770658400212046FFF74AFD3448042121
:104AF0000170456033480170C56005618582606A58
:104B00002030FBF761FB30483149046002206070BF
:104B10002E48057045700978C170FFF753FD2D4888
:104B2000016841F47F0101600068390601EA002054
:104B30002849C0431439B0FA80F00968C0F1080070
:104B4000C1F30221814200DB481C2249091F0B6886
:104B50006FF08072824063F317020A60FEF7A2FED4
:104B60001D49002808600DDB00F1E02181F8007488
:104B700000F01F02012191404011800000F1E0206F
:104B8000C0F80011324641464846BDE8F0470023D0
:104B900000F064B8BC070020106500002865000024
:104BA00030060020146500002C650000000700207E
:104BB0003265000030000020E0600020A1380000D5
:104BC000B0600020C8600020080100209807002085
:104BD0003065000020ED00E0040100200C4810B515
:104BE0000268012151700068FFF7CCFEFFF7C4FB9B
:104BF00008480168491C0160FFF7C0FB00F00EF88F
:104C00000548FFF7A8FCBDE81040FFF737BF0000DC
:104C10000801002010010020B060002070B50D4D8B
:104C20002868002815D0A8880B4E401EA8800AE0EE
:104C3000E088FEF74CFEA088A88020682860214606
:104C40003068FFF775FCA888002802D12C68002C7A
:104C5000EED170BD14010020300000202DE9F0419C
:104C60001E46174680460C4611F0FF0F00D14C1C23
:104C70001548FFF757FB051E23D0200AAF62688452
:104C8000E1B242462846EE61FFF77AFC1049012462
:104C90000E48098805E000EB840252F8042C1AB192
:104CA000641C8C42F7D9002400EB840040F8045CBB
:104CB000EC702846FFF79CFB0648006880F820400F
:104CC0002046BDE8F081000030060020BC0700202F
:104CD000106500000801002002480068002800D08C
:104CE000C07870470801002010B5074C6078002894
:104CF00008D106494FF4007201F58060FBF77BFC98
:104D00000120607010BD0000C0000020803600202F
:104D10002DE9F0470024DFF8A88025462646C8F88C
:104D2000004088F8044021212648FBF79EFC2548D6
:104D300021212130FBF799FC224809214230FBF761
:104D4000B6FC204FA7F15E09781959F8241000F03D
:104D50002FFD641C2844E4B2C5B2042CF4D37E5564
:104D60000025184F2C462137A7F16F09781959F8FB
:104D7000241000F01DFD641C2844E4B2C5B2042CCC
:104D8000F4D37E550E4C0F4D143C42352846216815
:104D900000F00EFDC0B230212E540B4800680068B0
:104DA000606104F1190088F80460017032214170DB
:104DB000342181703121C1700671BDE8F087000097
:104DC00018000020D6010020000000202DE9F0414D
:104DD0002C4E0746B0694169384688470546B06998
:104DE000816938468847044635B12CB14FF4806854
:104DF00045450AD8012009E040F21B1222A10020FB
:104E0000FDF73EFB0220BDE8F08100204FF49072D8
:104E10001DA1FDF735FBB8FBF5F105FB118048B18D
:104E2000002040F2211218A1FDF72AFBAC4203D367
:104E3000012002E00120F4E700204FF4917212A15A
:104E4000FDF71EFBB4FBF5F005FB1040C0B10020E0
:104E500040F223120CA1FDF713FBB7FBF4F004FBA7
:104E60001070381AC6E903047060444500D3444604
:104E70002146FF221148B460FBF7EFFB0020C2E798
:104E80000120E5E7700000202E2E5C2E2E5C2E2ED9
:104E90005C736F757263655C6461706C696E6B5C8A
:104EA000647261672D6E2D64726F705C666C6173E5
:104EB000685F6D616E616765722E63000009002096
:104EC0000020704710B5094C207840B100F08CF8F4
:104ED0006068C168064888470021217010BDC12262
:104EE00004A10020FDF7CCFA022010BD3400002000
:104EF000CC0700202E2E5C2E2E5C2E2E5C736F7540
:104F00007263655C6461706C696E6B5C647261672E
:104F10002D6E2D64726F705C66696C655F73747260
:104F200065616D2E6300000070B5134C0546207856
:104F300008B1862202E0022D06D38C220FA10020A8
:104F4000FDF79EFA022070BDDFF864C000DFA060AC
:104F50004FF482711748FBF7AAFB01202070064826
:104F60000C3000EB0510606041681248884700284B
:104F7000E9D00321217070BD340000202E2E5C2E5C
:104F80002E5C2E2E5C736F757263655C6461706C51
:104F9000696E6B5C647261672D6E2D64726F705CFC
:104FA00066696C655F73747265616D2E63000000E5
:104FB000D94C0000CC0700202DE9F041094D0E46E8
:104FC0000746002405EB0410314602683846904736
:104FD00010B12046BDE8F081641CE4B2022CF1D38C
:104FE0000320F7E740000020DFF818C000DF064983
:104FF0008968884201D1012000E00020632203A1DA
:10500000FDF73EBAD94C0000340000202E2E5C2E55
:105010002E5C2E2E5C736F757263655C6461706CC0
:10502000696E6B5C647261672D6E2D64726F705C6B
:1050300066696C655F73747265616D2E6300000054
:1050400010B500F1080103220C4607A0FBF7F5F9A3
:10505000002806D00322214604A0FBF7EEF908B190
:10506000032010BD012010BD42494E0048455800A4
:1050700070B5154D06460C462878012806D0A522A5
:1050800012A10020FDF7FCF9022070BDFFF7ACFF74
:1050900068682246314683681948984704461028B4
:1050A00006D0112C06D02CB103202870204670BDEC
:1050B0000220FAE72878012800D00020B32203A1BB
:1050C000FDF7DEF9F2E70000340000202E2E5C2E02
:1050D0002E5C2E2E5C736F757263655C6461706C00
:1050E000696E6B5C647261672D6E2D64726F705CAB
:1050F00066696C655F73747265616D2E6300000094
:10510000CC070020DFF81CC000DF0749496888424F
:1051100001D1012000E000204FF4AD7203A1FDF7A2
:10512000AFB90000D94C0000B00000202E2E5C2E3C
:105130002E5C2E2E5C736F757263655C6461706C9F
:10514000696E6B5C647261672D6E2D64726F705C4A
:105150007666735F6D616E616765722E6300000035
:105160004FF6FF710248DFF80CC000DF7047000007
:10517000702F0020C9470000884203D3904201D815
:10518000012070470020704700240320DFF834C05E
:1051900000DF0D4E0325DFF834C000DF0220DFF80A
:1051A00030C0716800DFB4FBF5F005FB1040641CF3
:1051B000E4B20028EFD10120DFF814C0716800DFED
:1051C000E9E7000015460000240000202D460000FD
:1051D000954400002DE9F0411C4C15460E46E07F39
:1051E00038B1BDE8F04140F28E2219A10020FDF750
:1051F00047B9E8051ED0002040F2922214A1FDF725
:105200003FF9607F40F2932211A1FDF739F9294659
:105210003046FFF72DFF0027012610280CD011285B
:105220000FD084F82070216929442161BDE8F04144
:1052300000F0C8B80120DFE7FFF744FE6777E677A4
:1052400000E0002084F82060EDE700004C2F0020F3
:105250002E2E5C2E2E5C2E2E5C736F757263655C39
:105260006461706C696E6B5C647261672D6E2D6435
:10527000726F705C7666735F6D616E616765722ECA
:105280006300000070B51B4D06460C46687F002881
:1052900011D0002040F2532217A1FDF7F1F8601C55
:1052A00000D001204FF4157213A1FDF7E9F86868EA
:1052B000401C02D002E00120ECE76C6095F823006E
:1052C000032801D185F823606868A04203D195F8CE
:1052D0002300B04201D0032007E03046FFF724FE50
:1052E00018B90121AC606977A977BDE8704000F07A
:1052F00069B800004C2F00202E2E5C2E2E5C2E2E26
:105300005C736F757263655C6461706C696E6B5C15
:10531000647261672D6E2D64726F705C7666735F68
:105320006D616E616765722E6300000030B4174CCA
:10533000257F032D02D025683DB107E030BC40F247
:10534000122213A10020FDF79BB820606068401C6A
:1053500000D1616094F82300032801D184F8233040
:105360006069904201D903200CE04D1C02D06568B1
:105370008D42F8D194F823109942F4D1904200D292
:105380006261002030BC00F01DB800004C2F0020EE
:105390002E2E5C2E2E5C2E2E5C736F757263655CF8
:1053A0006461706C696E6B5C647261672D6E2D64F4
:1053B000726F705C7666735F6D616E616765722E89
:1053C000630000002DE9F0470446102803D0112C9B
:1053D00001D0012000E0002040F2B3223DA1FDF702
:1053E0004FF8494D287F032808D0296871B1D5E9C5
:1053F000050282420AD348B1012008E0BDE8F04727
:1054000040F2B72233A10020FDF73AB8002085F81A
:10541000210095F8229019B995F82310032901D09D
:10542000012100E00021884620B195F8201009B143
:10543000012600E00026E97F11B108B1012000E05B
:1054400000208246E8680027401C10D06868401C95
:1054500000D0012040F2D3221EA1FDF711F86968A7
:10546000E868401A29694002814200D901270320D7
:105470000CB128771BE0B9F1000F09D00FB1062459
:10548000F7E7B8F1000FF4D0002EF2D10424F0E7D2
:10549000BAF1000FEDD10EB1022003E0B8F1000F18
:1054A00002D0012028770FE0287F032809D1687FE8
:1054B00028B1FFF707FD0021697704B904461348B6
:1054C0000470B9F1000F03D1BDE8F04700F0DEBB76
:1054D000BDE8F0872E2E5C2E2E5C2E2E5C736F7531
:1054E0007263655C6461706C696E6B5C6472616749
:1054F0002D6E2D64726F705C7666735F6D616E6188
:105500006765722E630000004C2F0020B000002061
:1055100010B50D4C207830B100202070FCF764FFEE
:1055200040B11B2010BD822208A10020FCF7A8FF7B
:10553000022010BD607810B9FDF75EF908B10020B7
:1055400010BD212010BD00008C0000202E2E5C2EEE
:105550002E5C2E2E5C736F757263655C6461706C7B
:10556000696E6B5C647261672D6E2D64726F705C26
:105570006961705F666C6173685F696E74662E63E3
:10558000000000002DE9F047894604468046FBF7FD
:105590006CF83748FAF732FF024635492046FAF7E9
:1055A000A3FF00E0641C2078402802D00028F9D135
:1055B0003DE06078622849D012DC522855D008DCE2
:1055C000422843D044284AD0482842D04D2817D1F9
:1055D00036E0542840D0552835D0562810D141E027
:1055E000722842D006DC642839D0682831D06D2872
:1055F00006D125E074282FD0752824D0762831D004
:105600001CA005462046FAF7F9FE07462846FAF799
:10561000F5FE0646BA1EA11CA019FAF7AAFF3246EB
:1056200029462046FAF760FF20780028BBD1A4EB7A
:105630000800A9EB00012046BDE8F047FBF715B8CC
:10564000FDF786FEDDE7FDF78BFEDAE7FDF732FEBC
:10565000D7E7FDF75DFED4E7FDF77EFED1E7FDF766
:1056600053FECEE7FDF784FECBE704480068C8E7A9
:10567000906500004552524F520000007C640000CB
:1056800000F018B802484078002800D00120704788
:105690001C010020FBF7ECBA054910B50020C870CA
:1056A000FFF7EEFFFCF722FBBDE81040FBF706BD5D
:1056B0001C01002010B5DFF824C000DF084CDFF823
:1056C00028C06060074800DFFCF700FF0020607022
:1056D0000649A070A060086010BD0000D94C000011
:1056E000B0000020702F0020094700004401002076
:1056F00070B514460D460646FFF704FD074B1868C3
:10570000002809D00020FDF7DBFF2246294630465D
:10571000BDE8704000F06CBB70BD0000440100208B
:105720007047000070B514460D460646FFF7EAFCC8
:105730000D480068002815D00C48002383600C48F1
:10574000007F03280ED00020FDF7BAFF224629462D
:10575000304600F0D5FC224629463046BDE8704070
:10576000FDF772B970BD000044010020B0000020B8
:105770004C2F002006484FF0011201780548C180E7
:10578000002101704170C0E90221016170470000F1
:10579000006900001C01002010B5EFF3108000F03C
:1057A000010472B6FCF710FF002C00D162B610BDE8
:1057B00070B50D460446090E00F014F80646A0190F
:1057C000C5F3074100F00EF80644A019C5F3072100
:1057D00000F008F80644E9B2A01900F003F83044DC
:1057E00070BD0000054A02EB111301F00F011B7898
:1057F0000370515C41700220704700003465000066
:105800000346002001E01A54401C0A5C002AFAD129
:105810007047F0B50646002002460B460A2504E014
:10582000B3FBF5F3401C42F10002002BF8D150EA23
:10583000020301D10120002200231F460EE0B1FB2C
:10584000F5F405FB1414B1FBF5F13034B0EB030CA7
:10585000BCF1010C03F1010306F80C401C1A77EBB4
:105860000204ECD3F0BD2DE9F04115460E46074683
:10587000FFF7CFFF0446A8420AD230222946384615
:10588000FAF7EBFE281B38443146FFF7C2FF2846E3
:10589000BDE8F08170B50B4E05460424D6E904122C
:1058A0000068FFF769FC00280BD02819D6E902121E
:1058B0000068FFF761FC002803D0241D0C2CF4D9EC
:1058C000012070BD3864000001783A290AD1007ABD
:1058D000302809D0322807D0332805D0342803D007
:1058E000352801D000207047012070472DE9FF5F67
:1058F000994692468B460098FDF7E2F840F2651211
:105900003CA1FCF7BDFD48490026484DB1F80B000D
:10591000497B484309EB0001491EB1FBF0F7B9F19F
:10592000000F19D00024A7F10108EE6809E0E9682A
:10593000481C82B23E4800F0DDFCE868401C641C54
:10594000E8604445F3D34FF6FF723948E96800F048
:10595000D1FCE868401CE8602869202802D34FF495
:10596000BD721CE03349202201EB4014401C286129
:1059700031492046FAF7B8FD009801682160416876
:10598000616001892181807AA072C4F81C90300C7A
:10599000A0826683A968102909D34FF4C47215A1A7
:1059A0000020FCF76DFD002004B0BDE8F09F214B06
:1059B00001EB4100C03B214A43F8202003EB800269
:1059C0001F4E5660BBF1000F01D043F820B0BAF172
:1059D000000F01D0C2F804A01348491CB0F80B30E6
:1059E000407B43437B439360A9602878401C287028
:1059F0002046D9E72E2E5C2E2E5C2E2E5C736F7502
:105A00007263655C6461706C696E6B5C6472616723
:105A10002D6E2D64726F705C7669727475616C5F47
:105A200066732E6300000000C0310020C00000201B
:105A3000C033002080360020E0680000B141000043
:105A40002D640000C07A7047C0697047C16961B1B8
:105A5000074A084B408BB2F80B105B69527BB3FBD3
:105A6000F1F1801E00FB021070474FF0FF307047CD
:105A7000C0310020C0000020C17270470A4910B533
:105A80000846B1F81340B0F80B000CB90C6A0CB121
:105A9000444306E0002440F2591204A12046FCF7DA
:105AA000EFFC204610BD0000C03100202E2E5C2EE1
:105AB0002E5C2E2E5C736F757263655C6461706C16
:105AC000696E6B5C647261672D6E2D64726F705CC1
:105AD0007669727475616C5F66732E6300000000F6
